:100000000C9434000C943E000C943E000C943E0082
:100010000C943E000C943E000C943E000C943E0068
:100020000C943E000C943E000C943E000C943E0058
:100030000C943E000C943E000C943E000C943E0048
:100040000C943E000C943E000C943E000C943E0038
:100050000C943E000C943E000C943E000C943E0028
:100060000C943E000C943E0011241FBECFEFD8E04C
:10007000DEBFCDBF0E9469000C946D000C9400009F
:100080008AB18C6F8AB984B1836084B908959BB1B9
:10009000282F30E0220F331F220F331F9370292B9C
:1000A0002BB995B19C7F8295869586958370892B17
:1000B00085B90895C0E08C2F0E944700CF5F2FEFD5
:1000C00089E698E1215080409040E1F700C00000AF
:0E00D000F2CF0E9440000E945A00F894FFCF29
:00000001FF
